:100000000C94D5000C94FD000C94FD000C94FD00A4
:100010000C94FD000C94FD000C94FD000C94FD006C
:100020000C94FD000C94FD000C949B040C940A05A8
:100030000C94FD000C94FD000C94FD000C94FD004C
:100040000C94FD000C94FD000C94FD000C94FD003C
:100050000C94FD000C94FD000C94FD000C943C07E6
:100060000C94FD000C94FD000C94FD000C94FD001C
:100070000C94FD000C94FD000C94FD000C94FD000C
:100080000C94FD000C94FD000C94FD000C94FD00FC
:100090000C94FD000C94FD000C94FD000C94FD00EC
:1000A0000C94FD000C94FD000C94FD000000000079
:1000B000240027002A002D0030000000000023004B
:1000C000260029002C002F00080B0002020200006D
:1000D00009040000010202000005240010010524AB
:1000E000010101042402060524060001070581031D
:1000F00010004009040100020A0000000705020286
:1001000040000007058302400000040309041201B7
:100110000002EF0201404123368000010102030189
:1001200041726475696E6F204C4C43004172647576
:10013000696E6F204C656F6E6172646F0000000025
:1001400000250028002B002E0031000404040404C4
:10015000030405020202020403020202020606066A
:100160000606060404020202040404080201104008
:100170008040102040804080080204018040201010
:100180000201108010204040200000000200090FF2
:100190000000030401000C0000000000000000004B
:1001A0000000000000000000860711241FBECFEFF2
:1001B000DAE0DEBFCDBF22E0A4E5B1E001C01D92D0
:1001C000AD30B207E1F711E0A0E0B1E0E6EFF4E115
:1001D00002C005900D92A435B107D9F710E0C5ED26
:1001E000D0E004C02197FE010E94730AC43DD107EC
:1001F000C9F70E94AD070C94790A0C940000FC0129
:1002000080917601882311F13FB7F89482E08093C2
:10021000E9002091F200822F90E01816190614F4DC
:1002200081E090E0882339F0289844E640937501F6
:100230004091F1004083222339F02091F2002111F6
:1002400003C02BE62093E8003FBF08958FEF9FEF98
:1002500008952FB7F89483E08093E9009091E80027
:10026000892F807295FF04C09091F20080E4891B71
:100270002FBF089580916D0181110DC082E08093A0
:10028000690184E080936A0110926C0110926B0105
:1002900081E080936D0189E691E0089540916301CA
:1002A000509164012091610130916201421753071E
:1002B000B4F49091E8009570E1F39091E80092FD1C
:1002C00019C08093F10080916301909164010196BF
:1002D0008F739927892B19F48EEF8093E800809112
:1002E000630190916401019690936401809363018E
:1002F00081E0089580E00895EF92FF920F931F939D
:10030000CF93DF93F82E192FE62E042F81E0860F6E
:10031000880F0E944E0183E00E944E01CF2DD12F05
:10032000EC0EFD2EF11CCE15DF05B9F007FF13C052
:10033000FE0184910E944E01182F80E00E944E0120
:10034000812321968111EFCFDF91CF911F910F91E2
:10035000FF90EF9008958881EDCF81E0F5CFDF9297
:10036000EF92FF920F931F93CF93DF93D82E8A01C2
:10037000EB017B01E40EF51ECE15DF0559F0D7FE2B
:1003800012C0FE0184910E944E0121968111F4CF8A
:100390000FEF1FEFC801DF91CF911F910F91FF90D9
:1003A000EF90DF9008958881EECF0F931F93CF9346
:1003B000DF931F92CDB7DEB782E0898342E450E03D
:1003C00068EC70E080E80E94AF010E943A01DC0115
:1003D00012960D911C910115110589F0D801ED912E
:1003E000FC910280F381E02DBE016F5F7F4FC80159
:1003F000099597FD04C0F80100851185ECCF89812E
:100400000F90DF91CF911F910F910895615030F0BF
:100410002091F100FC0120830196F8CF289884E612
:10042000809375010895CF93DF931F92CDB7DEB708
:100430006983DC01ED91FC910280F381E02D41E0C4
:1004400050E0BE016F5F7F4F09950F90DF91CF9114
:10045000089583E08093E9008091F200882319F0E9
:100460008AE38093E80008950E94290190E00895AE
:10047000CF93DF931F92CDB7DEB7FC0184859585BE
:1004800097FD08C02FEF3FEF358724870F90DF914E
:10049000CF910895CE0101960E94FF00019719F4B3
:1004A000898190E0F3CF8FEF9FEFF0CF0F931F93F1
:1004B000CF93DF931F92CDB7DEB78C01FC0184850B
:1004C000958597FF0BC0CE0101960E94FF00019712
:1004D00071F4898190E0F80195878487F80184851B
:1004E00095850F90DF91CF911F910F9108958FEF18
:1004F0009FEFF1CFFC018485958597FD0BC09FB7D9
:10050000F89482E08093E9008091F2009FBF90E030
:10051000019608959FB7F89482E08093E900809156
:10052000F2009FBF90E0089581508F3008F047C0DF
:10053000E82FF0E0E256FD4F0C94730ABB02BF02B5
:10054000AD02B302B702DF02DF02DF02C202C8025D
:10055000CC02D002D602DF02DA02809180008F77CF
:10056000809380000895809180008F7DF9CF8091E5
:100570008000877FF5CF84B58F7784BD089584B5DB
:100580008F7DFBCF809190008F77809390000895AE
:10059000809190008F7DF9CF80919000877FF5CF7B
:1005A0008091C0008F778093C00008958091C00033
:1005B0008F7DF9CF8091C200877F8093C20008951C
:1005C0003FB7F8948091590190915A01A0915B0135
:1005D000B0915C0126B5A89B05C02F3F19F001968C
:1005E000A11DB11D3FBFBA2FA92F982F8827BC018D
:1005F000CD01620F711D811D911D42E0660F771FB5
:10060000881F991F4A95D1F708958F929F92AF92B4
:10061000BF92CF92DF92EF92FF924B015C010E945A
:10062000E0026B017C010E94E0026C197D098E09D9
:100630009F09683E734081059105A8F321E0821A65
:100640009108A108B10888EEC80E83E0D81EE11C0D
:10065000F11C81149104A104B10429F7FF90EF90DB
:10066000DF90CF90BF90AF909F908F9008958F9222
:100670009F92AF92BF92CF92DF92EF92FF920F9331
:100680001F93CF93DF936C017B018A0180910B0153
:10069000882309F45CC080917601882309F457C04F
:1006A0008091670180FF05C08091E00082608093A7
:1006B000E000E801B12C8AEFA82E93E0892E2AE30E
:1006C000922E209711F4BB20D9F10E9429018111AB
:1006D0000AC0AA94AA20D9F161E070E080E090E01D
:1006E0000E940503EECF8C171D0611F00CF08C2F25
:1006F0009FB7F8948092E9002091E80025FD02C0A0
:100700009FBFDFCF282F30E0C21BD30BF7018150F2
:1007100020F041914093F100FACFE20EF31EBB208E
:1007200021F09092E800B12CEBCF8091E80085FD9C
:10073000E7CF9092E800BB24B394209709F3F3CF5E
:100740005D9884E680936801101611063CF081E004
:1007500090E0F6019383828310E000E0C801DF910E
:10076000CF911F910F91FF90EF90DF90CF90BF90AE
:10077000AF909F908F9008952FB7F8946091550196
:100780007091560180915701909158012FBF0895A3
:10079000FC0101900020E9F73197AF01481B590B8C
:1007A000BC0187E791E00C9437038F929F92AF9240
:1007B000BF920F931F93CF93DF93CDB7DEB7A1976F
:1007C0000FB6F894DEBF0FBECDBF19A2423008F4B9
:1007D0004AE08E010F5D1F4F842E912CB12CA12C6D
:1007E000A50194010E94510AE62FB901CA01EA301D
:1007F000F4F4E05DD801EE938D01232B242B252BFF
:1008000079F790E080E0109719F0CD010E94C803BD
:10081000A1960FB6F894DEBF0FBECDBFDF91CF918A
:100820001F910F91BF90AF909F908F900895E95CBA
:10083000E1CFEF92FF920F931F93CF93DF9300D0FE
:1008400000D0CDB7DEB787E791E00E94380287E796
:1008500091E00E94380210E08A3379F0E1E0F0E0A4
:10086000EC0FFD1FE10FF11D17FDFA9580831F5F4F
:1008700087E791E00E943802EFCFCE0101960E94F7
:100880002B0A8C0187E791E00E943802282F205321
:10089000330B790132E0E316F10420F59801332798
:1008A000F901E757FE4F8491F901E659FE4F049193
:1008B000F901E55BFE4F14911123A1F081110E9413
:1008C0009402E12FF0E0EE0FFF1FE35CFE4FA591D5
:1008D000B4918FB7F894EC91E11020C000950E23ED
:1008E0000C938FBF87E791E00E9438028A3011F0A5
:1008F0008D30C1F787E791E00E9456028A3081F47B
:1009000087E791E00F900F900F900F90DF91CF91BC
:100910001F910F91FF90EF900C9438020E2BE0CFB7
:100920000F900F900F900F90DF91CF911F910F912B
:10093000FF90EF9008951F920F920FB60F9211241F
:100940008F939F938091E1009091E100937F90932A
:10095000E10083FF0FC01092E90091E09093EB005B
:100960001092EC0092E39093ED001092760198E0E3
:100970009093F00082FF22C093E09093E900909161
:10098000F200992319F09AE39093E800909168019E
:10099000992341F0909168019150909368019111D1
:1009A00001C05D9A90917501992341F09091750174
:1009B000915090937501911101C0289A84FF18C03D
:1009C0008091E2008E7E81608093E2008091E10060
:1009D0008F7E8093E100809167018E7E806180939D
:1009E00067019F918F910F900FBE0F901F901895E8
:1009F00080FFF7CF8091E2008E7E80618093E200DD
:100A00008091E1008E7E8093E100809167018E7E6F
:100A10008160E5CF1F920F920FB60F921124CF92F3
:100A2000DF92EF92FF920F931F932F933F934F9379
:100A30005F936F937F938F939F93AF93BF93EF9346
:100A4000FF93CF93DF93CDB7DEB76C97DEBFCDBFFB
:100A50001092E9008091E80083FF25C068E0CE0194
:100A600045960E94060282EF8093E8008D8987FFF9
:100A700039C09091E80090FFFCCF982F907609F054
:100A800034C19E894F89588D2F89F88C911131C0BE
:100A9000803861F5809166018093F1001092F10039
:100AA0008EEF8093E8006C960FB6F894DEBF0FBE11
:100AB000CDBFDF91CF91FF91EF91BF91AF919F910A
:100AC0008F917F916F915F914F913F912F911F91E6
:100AD0000F91FF90EF90DF90CF900F900FBE0F908F
:100AE0001F9018959EEF9093E800C7CF1092F100E9
:100AF000D5CF913059F48111D3CF4130510581F6D2
:100B0000809166018D7F80936601CACF933049F44E
:100B10008111C6CF4130510519F68091660182607E
:100B2000F2CF953041F48091E80080FFFCCF20683F
:100B30002093E300B5CF963009F0A9C00B8D1C8D32
:100B400022E01092E9001092640110926301F21207
:100B50002EC010926201109261010E94D5011F8285
:100B600099E09983FA8291E09E8390EA98879AEFC0
:100B700099872091630130916401275F3F4F3C8347
:100B80002B838D831092E90010926401109263010F
:100B9000109362010093610149E050E0BE016F5F74
:100BA0007F4F80E00E94AF010E94D50179CF109362
:100BB0006201009361010E943A01DC0112960D91DD
:100BC0001C910115110509F451C1D801ED91FC9159
:100BD0000480F581E02DBE016B5E7F4FC801099551
:100BE000009709F03EC1F80100851185EACFF3E0D6
:100BF000FF120EC08F89882309F440C0823061F44F
:100C000040E860E18CE291E00E947C01811148CFD4
:100C100081E28093EB0047CF813029F440E86BE01C
:100C200080E291E0F1CF833099F70E943A01DC0134
:100C30001296ED90FC908E010F5F1F4F6801E1143A
:100C4000F10479F0D701ED91FC910680F781E02D58
:100C5000B801C7010995080F111DF701E084F1845F
:100C6000EECFD8011C92F60101900020E9F73197F0
:100C7000BF016C197D0940E0C601C6CF6AE071E092
:100C8000FB01449150E080E80E94AF0109CF97300A
:100C900009F4BECF983021F481E08093F10000CFB9
:100CA000993009F0FDCE837009F0B2CFEDE0F1E0AC
:100CB00081E031E096E32191222371F08093E900F5
:100CC0003093EB00DF0111972C912093EC0090936F
:100CD000ED008F5F873079F78EE78093EA001092FE
:100CE000EA008F8980937601DBCE8B8D9C8D1092EC
:100CF000E900109264011092630190936201809365
:100D00006101898D811192C08E899D89913A49F442
:100D1000813209F07DCF47E050E064E071E080E08F
:100D2000B3CF913209F074CF833269F48F89988DF3
:100D3000B0E0A0E08093000190930101A093020134
:100D4000B0930301ADCE803269F48091E80082FF58
:100D5000FCCF67E084E091E00E9406028BEF809375
:100D6000E8009ECE823209F09BCE8F8980930B01E2
:100D7000EEEFFFE7859194918B3F9C4D51F1E0E0C0
:100D8000F8E08091040190910501A0910601B091D5
:100D90000701803B9440A105B105F1F480910B015E
:100DA00080FD1AC0EE3F8AE0F80789F587E797E7EC
:100DB00091838083809160008093650188E19BE04E
:100DC0000FB6F894A895809360000FBE90936000D2
:100DD00067CEEEEFFAE0D5CF8081918187379747D4
:100DE00009F05ECEA89580916000886180936000D4
:100DF0008091650180936000EE3F2AE0F20789F060
:100E00008091FE0A9091FF0A9183808349CE808170
:100E100091818737980751F29093FF0A8093FE0AD9
:100E2000C5CF1092FF0A1092FE0A3ACE0E943A01F4
:100E3000DC0112960D911C910115110509F4E8CE03
:100E4000D801ED91FC910190F081E02DBE016B5E27
:100E50007F4FC8010995811123CEF80100851185C6
:100E6000EBCF181619060CF41BCED2CEF1E0FF1210
:100E7000BECE6EE071E004CF1F920F920FB60F92BC
:100E800011242F933F938F939F93AF93BF938091A0
:100E9000550190915601A0915701B09158013091A0
:100EA000540123E0230F2D3758F50196A11DB11DE4
:100EB000209354018093550190935601A0935701BC
:100EC000B09358018091590190915A01A0915B0112
:100ED000B0915C010196A11DB11D809359019093C1
:100EE0005A01A0935B01B0935C01BF91AF919F91B8
:100EF0008F913F912F910F900FBE0F901F901895DB
:100F000026E8230F0296A11DB11DD2CFE7E7F1E03D
:100F10001382128288EE93E0A0E0B0E08483958390
:100F2000A683B78387E191E0918380838FEF9FEF62
:100F300095878487E7ECF1E0168217821086118688
:100F4000128613861486158616861786108A118ACD
:100F5000128A138A148A158A0895789484B5826057
:100F600084BD84B5816084BD85B5826085BD85B54D
:100F7000816085BD80916E00816080936E001092CB
:100F80008100809181008260809381008091810046
:100F900081608093810080918000816080938000D7
:100FA0008091910082608093910080919100816096
:100FB0008093910080919000816080939000809157
:100FC000C10084608093C1008091C10082608093E1
:100FD000C1008091C10081608093C1008091C300F5
:100FE00081608093C3008091C00082608093C000C4
:100FF0008091C20081608093C20080917A008460F9
:1010000080937A0080917A00826080937A00809148
:101010007A00816080937A0080917A008068809362
:101020007A00109276011092660110926701809109
:10103000D70081608093D70080EA8093D80089B57B
:10104000806189BD89B5826089BD09B400FEFDCF8C
:1010500061E070E080E090E00E9405038091D8009C
:101060008F7C80618093D8008091E000807F8093A6
:10107000E0008091E1008E7E8093E1008DE080931E
:10108000E200559A209A1092090210920A021092D8
:101090000B0210920C021092C9011092CA01109218
:1010A000CB011092CC010E94BC036B017C014B016F
:1010B0005C0128EB820E2BE0921EA11CB11C0E9449
:1010C000BC036C157D058E059F0528F086169706D6
:1010D000A806B906A0F768EE73E080E090E00E94F1
:1010E00005038FEF9FEF90938401809383010E940B
:1010F000BC036093C9017093CA018093CB019093A4
:10110000CC0185E291E00E94C8030E94BC036B0100
:101110007C014B015C013AE0830E911CA11CB11CC7
:101120000E94BC036C157D058E059F0528F0861670
:101130009706A806B906A0F781E08093DD010E941A
:10114000BC036093C9017093CA018093CB01909353
:10115000CC0186E391E00E94C8034CE6242E41E0D6
:10116000342EF10124910DE411E0F80184918823DB
:10117000C1F090E0880F991FFC01E455FF4FA59145
:10118000B491FC01E35CFE4FC591D4913FB7F89454
:101190009C91822F809598239C93988189238883A2
:1011A0003FBF68EE73E080E090E00E9405038FEFA0
:1011B0009FEF9093840180938301C0E0D0E024EFFF
:1011C000422E55245394612C712C0E94BC03672B32
:1011D000682B692B09F4F0C00E94BC03C0905D012C
:1011E000D0905E01E0905F01F09060016C157D058C
:1011F0008E059F0508F426C1C0905D01D0905E0168
:10120000E0905F01F09060019B01AC012C193D0959
:101210004E095F0969017A013AEFC316D104E1046E
:10122000F10408F4D1C060935D0170935E01809376
:101230005F01909360014092D5015092D601609277
:10124000D7017092D8011092D9011092DA01109250
:10125000DB011092DC018091CD019091CE01A09133
:10126000CF01B091D0018093D1019093D201A0938E
:10127000D301B093D4010E94BC036093CD0170935D
:10128000CE018093CF019093D00187E791E00E9437
:101290005602843611F40E9419040E94BC03609324
:1012A000C9017093CA018093CB019093CC010E9435
:1012B000BC036B017C018DE391E00E94C8034AE00E
:1012C00061E070E080E090E00E94D50384E491E06A
:1012D0000E94C8034AE0C701B6010E94D50386E414
:1012E00091E00E94C8038091CD019091CE01A09120
:1012F000CF01B091D001A7019601281B390B4A0BF1
:101300005B0BCA01B9014AE00E94D50386E491E073
:101310000E94C8036091CD017091CE018091CF01F0
:101320009091D001C090D101D090D201E090D30132
:10133000F090D4016C197D098E099F094AE00E9442
:10134000D50388E491E00E94C8030E94BC034AE0F0
:101350000E94D5038AE491E00E94C80381E591E0F0
:101360000E94C8030E94BC036B017C014B015C011D
:1013700032E0830E911CA11CB11C0E94BC036C15B1
:101380007D058E059F0528F086169706A806B906E6
:10139000A0F787E791E00E945602843611F40E947C
:1013A00019040E94BC036093CD017093CE01809319
:1013B000CF019093D00108C00E94BC036230710538
:1013C0008105910508F008CFEBE8F1E08491F10187
:1013D000F490F801E490912C812CEE2099F0811189
:1013E0000E949402EE2DF0E0EE0FFF1FE654FF4F37
:1013F000A591B4918C91F82291E080E009F490E0FD
:10140000892E982E84E6E82EF12C092C000CAA08CF
:10141000BB084AE0C501B4010E94D50381E591E013
:101420000E94C8036AE070E080E090E00E9405033B
:10143000F1E0EF1AF10869F7209709F4C6CE0E948F
:101440000000C3CE60935D0170935E0180935F01E5
:1014500090936001D1CEFC0188279927E8942191CF
:101460002032E9F3293010F02E30C8F32B3241F04E
:101470002D3239F4689404C00E94490A820F911DEC
:10148000219120532A30C0F31EF4909581959F4FEF
:1014900008957AE0979F902D879F802D910D1124BC
:1014A0000895A1E21A2EAA1BBB1BFD010DC0AA1FA5
:1014B000BB1FEE1FFF1FA217B307E407F50720F0BD
:1014C000A21BB30BE40BF50B661F771F881F991F38
:1014D0001A9469F760957095809590959B01AC0181
:1014E000BD01CF010895EE0FFF1F0590F491E02D8F
:0614F0000994F894FFCFFF
:1014F600FFFFFFFF00E100000000000000C1808147
:101506000000000000000013023703340229027AAB
:101516000238025602564D4450565F317C315F56B2
:101526004D4450560A00564D4450525F00564D44A5
:1015360050455F003A323A007C005F564D445045B4
:04154600000D0A008A
:00000001FF
